{
  "contractName": "EmployeeDetails",
  "abi": [
    {
      "inputs": [
        {
          "internalType": "uint256",
          "name": "",
          "type": "uint256"
        }
      ],
      "name": "employees",
      "outputs": [
        {
          "internalType": "string",
          "name": "name",
          "type": "string"
        },
        {
          "internalType": "uint256",
          "name": "age",
          "type": "uint256"
        },
        {
          "internalType": "string",
          "name": "position",
          "type": "string"
        }
      ],
      "stateMutability": "view",
      "type": "function",
      "constant": true
    },
    {
      "inputs": [
        {
          "internalType": "uint256",
          "name": "_id",
          "type": "uint256"
        },
        {
          "internalType": "string",
          "name": "_name",
          "type": "string"
        },
        {
          "internalType": "uint256",
          "name": "_age",
          "type": "uint256"
        },
        {
          "internalType": "string",
          "name": "_position",
          "type": "string"
        }
      ],
      "name": "setEmployee",
      "outputs": [],
      "stateMutability": "nonpayable",
      "type": "function"
    },
    {
      "inputs": [
        {
          "internalType": "uint256",
          "name": "_id",
          "type": "uint256"
        }
      ],
      "name": "getEmployee",
      "outputs": [
        {
          "internalType": "string",
          "name": "",
          "type": "string"
        },
        {
          "internalType": "uint256",
          "name": "",
          "type": "uint256"
        },
        {
          "internalType": "string",
          "name": "",
          "type": "string"
        }
      ],
      "stateMutability": "view",
      "type": "function",
      "constant": true
    },
    {
      "inputs": [
        {
          "internalType": "uint256",
          "name": "_id",
          "type": "uint256"
        },
        {
          "internalType": "string",
          "name": "_name",
          "type": "string"
        },
        {
          "internalType": "uint256",
          "name": "_age",
          "type": "uint256"
        },
        {
          "internalType": "string",
          "name": "_position",
          "type": "string"
        }
      ],
      "name": "updateEmployee",
      "outputs": [],
      "stateMutability": "nonpayable",
      "type": "function"
    }
  ],
  "bytecode": "0x608060405234801561001057600080fd5b50610b83806100206000396000f3fe608060405234801561001057600080fd5b506004361061004b5760003560e01c8062fa6c5f146100505780634739326b1461006c578063bca9a5c51461009e578063f517b810146100d0575b600080fd5b61006a60048036038101906100659190610664565b6100ec565b005b61008660048036038101906100819190610703565b610158565b604051610095939291906107be565b60405180910390f35b6100b860048036038101906100b39190610703565b610292565b6040516100c7939291906107be565b60405180910390f35b6100ea60048036038101906100e59190610664565b610404565b005b604051806060016040528084815260200183815260200182815250600080868152602001908152602001600020600082015181600001908161012e9190610a0f565b5060208201518160010155604082015181600201908161014e9190610a0f565b5090505050505050565b600060205280600052604060002060009150905080600001805461017b90610832565b80601f01602080910402602001604051908101604052809291908181526020018280546101a790610832565b80156101f45780601f106101c9576101008083540402835291602001916101f4565b820191906000526020600020905b8154815290600101906020018083116101d757829003601f168201915b50505050509080600101549080600201805461020f90610832565b80601f016020809104026020016040519081016040528092919081815260200182805461023b90610832565b80156102885780601f1061025d57610100808354040283529160200191610288565b820191906000526020600020905b81548152906001019060200180831161026b57829003601f168201915b5050505050905083565b60606000606060008060008681526020019081526020016000206040518060600160405290816000820180546102c790610832565b80601f01602080910402602001604051908101604052809291908181526020018280546102f390610832565b80156103405780601f1061031557610100808354040283529160200191610340565b820191906000526020600020905b81548152906001019060200180831161032357829003601f168201915b505050505081526020016001820154815260200160028201805461036390610832565b80601f016020809104026020016040519081016040528092919081815260200182805461038f90610832565b80156103dc5780601f106103b1576101008083540402835291602001916103dc565b820191906000526020600020905b8154815290600101906020018083116103bf57829003601f168201915b5050505050815250509050806000015181602001518260400151935093509350509193909250565b6000806000868152602001908152602001600020600001805461042690610832565b905003610468576040517f08c379a000000000000000000000000000000000000000000000000000000000815260040161045f90610b2d565b60405180910390fd5b60405180606001604052808481526020018381526020018281525060008086815260200190815260200160002060008201518160000190816104aa9190610a0f565b506020820151816001015560408201518160020190816104ca9190610a0f565b5090505050505050565b6000604051905090565b600080fd5b600080fd5b6000819050919050565b6104fb816104e8565b811461050657600080fd5b50565b600081359050610518816104f2565b92915050565b600080fd5b600080fd5b6000601f19601f8301169050919050565b7f4e487b7100000000000000000000000000000000000000000000000000000000600052604160045260246000fd5b61057182610528565b810181811067ffffffffffffffff821117156105905761058f610539565b5b80604052505050565b60006105a36104d4565b90506105af8282610568565b919050565b600067ffffffffffffffff8211156105cf576105ce610539565b5b6105d882610528565b9050602081019050919050565b82818337600083830152505050565b6000610607610602846105b4565b610599565b90508281526020810184848401111561062357610622610523565b5b61062e8482856105e5565b509392505050565b600082601f83011261064b5761064a61051e565b5b813561065b8482602086016105f4565b91505092915050565b6000806000806080858703121561067e5761067d6104de565b5b600061068c87828801610509565b945050602085013567ffffffffffffffff8111156106ad576106ac6104e3565b5b6106b987828801610636565b93505060406106ca87828801610509565b925050606085013567ffffffffffffffff8111156106eb576106ea6104e3565b5b6106f787828801610636565b91505092959194509250565b600060208284031215610719576107186104de565b5b600061072784828501610509565b91505092915050565b600081519050919050565b600082825260208201905092915050565b60005b8381101561076a57808201518184015260208101905061074f565b60008484015250505050565b600061078182610730565b61078b818561073b565b935061079b81856020860161074c565b6107a481610528565b840191505092915050565b6107b8816104e8565b82525050565b600060608201905081810360008301526107d88186610776565b90506107e760208301856107af565b81810360408301526107f98184610776565b9050949350505050565b7f4e487b7100000000000000000000000000000000000000000000000000000000600052602260045260246000fd5b6000600282049050600182168061084a57607f821691505b60208210810361085d5761085c610803565b5b50919050565b60008190508160005260206000209050919050565b60006020601f8301049050919050565b600082821b905092915050565b6000600883026108c57fffffffffffffffffffffffffffffffffffffffffffffffffffffffffffffffff82610888565b6108cf8683610888565b95508019841693508086168417925050509392505050565b6000819050919050565b600061090c610907610902846104e8565b6108e7565b6104e8565b9050919050565b6000819050919050565b610926836108f1565b61093a61093282610913565b848454610895565b825550505050565b600090565b61094f610942565b61095a81848461091d565b505050565b5b8181101561097e57610973600082610947565b600181019050610960565b5050565b601f8211156109c35761099481610863565b61099d84610878565b810160208510156109ac578190505b6109c06109b885610878565b83018261095f565b50505b505050565b600082821c905092915050565b60006109e6600019846008026109c8565b1980831691505092915050565b60006109ff83836109d5565b9150826002028217905092915050565b610a1882610730565b67ffffffffffffffff811115610a3157610a30610539565b5b610a3b8254610832565b610a46828285610982565b600060209050601f831160018114610a795760008415610a67578287015190505b610a7185826109f3565b865550610ad9565b601f198416610a8786610863565b60005b82811015610aaf57848901518255600182019150602085019450602081019050610a8a565b86831015610acc5784890151610ac8601f8916826109d5565b8355505b6001600288020188555050505b505050505050565b7f456d706c6f79656520646f6573206e6f74206578697374000000000000000000600082015250565b6000610b1760178361073b565b9150610b2282610ae1565b602082019050919050565b60006020820190508181036000830152610b4681610b0a565b905091905056fea2646970667358221220eefd30308a9740fbeecd1bb197067f87d611615938d49acd4ded37b20eb1ab9864736f6c63430008130033",
  "immutableReferences": {},
  "source": "// SPDX-License-Identifier: MIT\r\npragma solidity ^0.8.0; //version to be used\r\n\r\ncontract EmployeeDetails { //name od the contract\r\n    struct Employee { //the structure of the contract\r\n        string name;\r\n        uint age;\r\n        string position;\r\n    }\r\n\r\n    mapping(uint => Employee) public employees; //Mapping an index which is unsigned int to an instance of Employee struct \r\n\r\n\r\n    //following are the functions for setting, getting, updating the employees\r\n    function setEmployee(uint _id, string memory _name, uint _age, string memory _position) public { // we use memory for data that are dynamically sized\r\n        employees[_id] = Employee(_name, _age, _position); //assigning a struct\r\n    }\r\n\r\n    function getEmployee(uint _id) public view returns (string memory, uint, string memory) { //what it  should return is also given, and the view keyword tells that it simply reads and doesnt modify the blockchain\r\n        Employee memory employee = employees[_id]; // the data retrieved is stored in the memory rather than the storage as storage is a persistent one and costs more to change than memory\r\n        return (employee.name, employee.age, employee.position);\r\n    }\r\n\r\n    function updateEmployee(uint _id, string memory _name, uint _age, string memory _position) public {\r\n        require(bytes(employees[_id].name).length != 0, \"Employee does not exist\");\r\n        // require makes the transaction atomic, \r\n        employees[_id] = Employee(_name, _age, _position);\r\n    }\r\n}\r\n",
  "sourcePath": "D:\\solidity\\contracts\\EmployeeDetails.sol",
  "compiler": {
    "name": "solc",
    "version": "0.8.19+commit.7dd6d404.Emscripten.clang"
  },
  "schemaVersion": "3.4.16",
  "updatedAt": "2024-09-27T04:03:44.500Z",
  "networkType": "ethereum",
  "devdoc": {
    "kind": "dev",
    "methods": {},
    "version": 1
  },
  "userdoc": {
    "kind": "user",
    "methods": {},
    "version": 1
  }
}